011000015O0110000150020802000000000FEDERAL RESERVE BANK                1000 PEACHTREE ST N.E.              ATLANTA             GA303094470866234568111     
011000028O0110000151072811000000000STATE STREET BANK AND TRUST COMPANY JAB2NW                              N. QUINCY           MA021710000617664240011     
011000138O0110000151101310000000000BANK OF AMERICA, N.A.               8001 VILLA PARK DRIVE               HENRICO             VA232280000800446013511     
011000206O0110000151072505000000000BANK OF AMERICA N.A                 PO BOX 27025                        RICHMOND            VA232617025800446013511     
011000390O0110000151072505000000000BANK OF AMERICA N.A                 PO BOX 27025                        RICHMOND            VA232617025800446013511     
011000536O0110000151111411000000000FEDERAL HOME LOAN BK BOST           9TH FLOOR                           BOSTON              MA021990000617292979011     
011001234O0110000151092310000000000MELLON TRUST OF NEW ENGLAND, N.A.   SUITE 960                           PITTSBURGH          PA152620001412236333811     
011001276O0110000151030608000000000ONEUNITED BANK                      3683 CRENSHAW BL                    LOS ANGELES         CA900160000877663864811     
011001331O0110000151070210000000000RBS CITIZENS, NATIONAL ASSOCIATION  1 CITIZENS DRIVE                    RIVERSIDE           RI029150000800883422411     
011001726O0110000151062608000000000THE FIRST NATIONAL BANK OF IPSWICH  31 MARKET ST                        IPSWICH             MA019380000978356370011     
011001742O0110000151072505000000000BANK OF AMERICA, N.A.               PO BOX 27025                        RICHMOND            VA232617025800446013511     
011001881O0110000151061411000000000FIDUCIARY TRUST CO                  CASH MGMT                           BOSTON              MA022055806617292674711     
011001962O1210003742061610122203950CATHAY BANK                         RS-14                               ROSEMEAD            CA917700000626582733811     
011002343O0110000151071806000000000BOSTON PRIVATE BK + TR CO           ATTN: ACH ORPERATIONS               BOSTON              MA021094603617912423111     
011002550O0110000151032111000000000EASTERN BANK                        195 MARKET STREET                   LYNN                MA019010000781598789711     
011002725O0110000151060509000000000MERCANTILE BK & TR CO               61 BROOKLINE AVENUE                 BOSTON              MA022150000617867881611     
011002877O0110000151042610000000000EAST WEST BANK                      9300 FLAIR DRIVE, 4TH FLOOR         EL MONTE            CA917310000626371856111     
011075150O0110000151062410000000000SOVEREIGN BANK                      601 PENN STREET                     READING             PA196010000877768226511     
011075202O0110000151062410000000000SOVEREIGN BANK                      601 PENN STREET                     READING             PA196010000877768226511     
011099071O0110000150093002000000000FRB BOSTON HUMAN RESOURCES          1000 PEACHTREE STREET NE            ATLANTA             GA303090000866234568111     
011099660O0110000150093002000000000FRB BOSTON ACCOUNTING DEPT.         1000 PEACHTREE STREET NE            ATLANTA             GA303090000866234568111     
011100012O0110000151072805000000000BANK OF AMERICA N.A.                PO BOX 27025                        RICHMOND            VA232617025800446013511     
011100106O0110000151031111000000000WELLS FARGO BANK                    MAC N9301-041                       MINNEAPOLIS         MN554790000800745242611     
011100805O0110000151072805000000000BANK OF AMERICA N.A                 P.O. BOX 27025                      RICHMOND            VA232617025800446013511     
011100892O0110000151071306000000000BANK OF AMERICA N.A.                P.O. BOX 27025                      RICHMOND            VA232617025800446013511     
011100915O0110000151072805000000000BANK OF AMERICA N.A.                P.O. BOX 27025                      RICHMOND            VA232617025800446013511     
011101529O0110000151072805000000000BANK OF AMERICA N.A.                P.O. BOX 27025                      RICHMOND            VA232617025800446013511     
011101613O0110000151020110000000000WEBSTER BANK                        436 SLATER RD                       NEW BRITAIN         CT060530000860612652211     
011101752O0110000151072105000000000BANK OF AMERICA N.A.                PO BOX 27025                        RICHMOND            VA232617025800446013511     
011102133O0110000151061010000000000CITIZENS NATIONAL BANK              182 MAIN ST                         PUTMAN              CT062601933860928792111     
011102353O0110000151110101000000000FIRST NAT BANK OF SUFFIELD          30 BRIDGE STREET                    SUFFIELD            CT060780000860668395011     
011102502O0110000151110810000000000UNION SAVINGS BANK                  225 MAIN ST                         DANBURY             CT068100000203830420011     
011102612O0110000151082206000000000SALISBURY BANK & TRUST CO           PO BOX 757                          CANAAN              CT060180000860435980111     
011102638O0110000151060809000000000NATIONAL IRON BANK                  PO BOX 565                          SALISBURY           CT060680000860435258111     
011102667O0110000152062410011102612SALISBURY BANK & TRUST CO.          94 MAIN ST                          CANAAN              CT060180000860435980111     
011103080O0110000151072105000000000BANK OF AMERICA N.A.                PO BOX 27025                        RICHMOND            VA232617025800446013511     
011103093O0110000151062711000000000TD BANK NA                          P.O. BOX 1377                       LEWISTON            ME042401377877898782111     
011103129O0110000151051302000000000JEWETT CITY SAVINGS BANK            135 DARLING DR                      AVON                CT060014218860376444411     
011104047O0110000151072505000000000BANK OF AMERICA N.A.                PO BOX 27025                        RICHMOND            VA232617025800446013511     
011104050B0110000151020110000000000WEBSTER BANK                        436 SLATER RD                       NEW BRITAIN         CT060530000860612652211     
011104131O0110000151062609000000000PEOPLES BANK                        850 MAIN STREET                     BRIDGEPORT          CT066010000203338717111     
011104173O0110000151042811000000000FIRST NIAGARA BANK, NA              P.O. BOX 886                        LOCKPORT            NY140950886800421000411     
011104199O0110000151062609000000000PEOPLES BANK                        850 MAIN STREET                     BRIDGEPORT          CT066010000203338717111     
011104209O0110000151020110000000000WEBSTER BANK                        436 SLATER RD                       NEW BRITAIN         CT060530000860612652211     
011104283O0110000152061009211174181SAVINGS INSTITUTE                   803 MAIN ST                         WILLAMANTIC         CT062260000860423458111     
011104322O0110000152020110211170101WEBSTER BANK N.A                    436 SLATER ROAD                     NEW BRITAIN         CT060530000860612652211     
011104335O0110000151091710000000000PRIME BANK                          7 OLD TAVERN ROAD                   ORANGE              CT064770696203799129911     
011104351O0110000151050802000000000SIMSBURY BANK & TRUST               760 HOPEMEADOW STREET               SIMSBURY            CT060700000860651209711     
011110552O0110000151070110000000000RBS CITIZENS, NATIONAL ASSOCIATION  1 CITIZENS DRIVE                    RIVERSIDE           RI029150000800883422411     
011110617O0110000151012312000000000BANKERS' BANK NORTHEAST             SUITE 125                           GLASTONBURY         CT060330000860266235311     
011110620O0110000152081009211174178NAUGATUCK SAVINGS BANK              PO BOX 370                          NAUGATUCK           CT067700370203720538111     
011110633O0110000151061410000000000NEW ENGLAND BANK                    4 RIVERSIDE AVE.                    BRISTOL             CT060100000866693023011     
011110646O0110000152061410011110633NEW ENGLAND BANK                    4 RIVERSIDE AVE.                    BRISTOL             CT060100000866693023011     
011110659O0110000151080607000000000THE BANK OF SOUTHERN CONNECTICUT    215 CHURCH STREET                   NEW HAVEN           CT065100000203786864411     
011110675O0110000151020110000000000WEBSTER BANK                        132 GRAND ST                        WATERBURY           CT067021909860612652211
